S0270000566F6963655F5265636F676E6974696F6E5F6D6F64756C6576335F746573742E737265637A
S113000012C021C020C01FC01EC01DC01CC01BC008
S11300101AC019C018C017C016C015C014C013C028
S113002012C011C010C011241FBECFE5D4E0DEBF42
S1130030CDBF20E0A0E6B0E001C01D92A239B20716
S1130040E1F728D04EC0DCCF26E820BD90BD89B9A9
S113005088E18AB908955D9BFECF8CB908955F9BB2
S1130060FECF8CB108958AEAF6DF89E0F4DF80E3FD
S1130070F2DF80E0F0DF81E0EEDF82E0ECDF83E0BE
S1130080EADF84E0E8DF85E0E6DF86E0E4DF8AE0BB
S1130090E2DF08958FEF84BB87E690E0D5DF2FEF92
S11300A081EE94E0215080409040E1F700C00000D0
S11300B0DADF00E610E0FF24FA94D1DF8A3A31F463
S11300C0C0E6D0E0CCDF89938A30E1F7F80185817E
S11300D0811101C0F5BAF8018581813071F715BA33
S10900E0ECCFF894FFCF01
S9030000FC
